S014000053696D706C65427574746F6E2E737265632A
S11300000C9434000C943E000C943E000C943E007E
S11300100C943E000C943E000C943E000C943E0064
S11300200C943E000C943E000C943E000C943E0054
S11300300C943E000C943E000C943E000C943E0044
S11300400C943E000C943E000C943E000C943E0034
S11300500C943E000C943E000C943E000C943E0024
S11300600C943E000C943E0011241FBECFEFD8E048
S1130070DEBFCDBF0E946D000C9470000C94000094
S11300804A9B02C080E008958AEF90E00197F1F75F
S113009089B186958695809581700895FF920F9316
S11300A01F93CF93DF93EBE2F0E080818460808341
S11300B081E084B911E000E0C5E2D0E0FF24F394CC
S11300C001C0102F0E9440008823D9F31123D1F7D7
S11300D088818F2588831F2DF5CF0E944E00FDCF88
S10700E0F894FFCFBE
S9030000FC
