:100000000C9435000C945D000C945D000C945D0024
:100010000C945D000C945D000C945D000C945D00EC
:100020000C945D000C945D000C945D000C945D00DC
:100030000C945D000C945D000C945D000C945D00CC
:100040000C945D000C945D000C945D000C945D00BC
:100050000C945D000C945D000C945D000C945D00AC
:100060000C945D000C945D007B0011241FBECFEF4B
:10007000D8E0DEBFCDBF11E0A6E0B1E001C01D9227
:10008000AC30B107E1F711E0A0E0B1E0EAE5F4E05F
:1000900002C005900D92A630B107D9F710E0CAE66C
:1000A000D0E004C02297FE010E942201C836D10789
:1000B000C9F70E9412010C942B020C94000090933B
:1000C000C5008093C40088E18093C1008EE08093D6
:1000D000C2000895982FE0ECF0E0808185FFFDCF0D
:1000E0009093C6000895E0ECF0E080818823ECF75F
:1000F0008091C600089584E690E00E9426018093D6
:100100000601909307010895FF920F931F93CF93D9
:10011000DF938C0180E0C0E0D0E0FF24F39408C0BE
:10012000F801E20FF31F80810E946A0021968F2D53
:100130009E01A02FB12FFD0101900020E9F731971A
:10014000EA1BFB0BCE17DF0758F3DF91CF911F910E
:100150000F91FF900895EF92FF920F931F93CF930B
:10016000DF93EC01E82FFD2FDF010D900020E9F770
:100170008D01015010400E1B1F0B102F802F90E09F
:100180000A960E942601AC017A01002371F020E05A
:1001900030E0FA01E20FF31FDE01A20FB31F8C91D2
:1001A00080832F5F3F4F2117A0F3D701A10FB11D0F
:1001B000FD018DE081938AE0808312961C92C70135
:1001C0000E948400C7010E94D301DF91CF911F914B
:1001D0000F91FF90EF9008951F93E0910601F09129
:1001E0000701108210E00E9473008D3061F08A30A8
:1001F00051F0E0910601F0910701E10FF11D8083BC
:100200001F5F113381F7E0910601F0910701E10FC3
:10021000F11D108280910601909107010E94AB00B0
:100220001F910895CF93DF9387E690E00E945F00CF
:10023000C0E4DCE90E94EC00CE010197F1F7FACFAF
:10024000EE0FFF1F0590F491E02D0994CF93DF93FB
:10025000BC018230910510F462E070E0A0910A01C7
:10026000B0910B01ED01E0E0F0E040E050E021C092
:10027000888199818617970769F48A819B813097D5
:1002800019F09383828304C090930B0180930A0139
:10029000FE0134C06817790738F44115510519F08B
:1002A0008417950708F4AC01FE018A819B819C01AB
:1002B000E9012097E9F641155105A9F1CA01861B0C
:1002C000970B049708F4BA01E0E0F0E02AC08D91A2
:1002D0009C91119784179507F9F46417750781F4B9
:1002E00012968D919C911397309719F09383828386
:1002F00004C090930B0180930A01FD0132964FC018
:10030000CA01861B970BFD01E80FF91F61937193DA
:1003100002978D939C9343C0FD01828193819C0140
:10032000D9011097A1F68091080190910901892BBC
:1003300041F480910201909103019093090180930F
:10034000080140910401509105014115510541F406
:100350004DB75EB78091000190910101481B590B88
:10036000209108013091090124173507B0F4CA0122
:10037000821B930B8617970780F0AB014E5F5F4F90
:100380008417950750F0420F531F50930901409373
:100390000801F9016193719302C0E0E0F0E0CF0140
:1003A000DF91CF910895CF93DF93009709F450C068
:1003B000EC0122971B821A82A0910A01B0910B01D5
:1003C000109709F140E050E0AC17BD0708F1BB837E
:1003D000AA83FE0121913191E20FF31FAE17BF07EF
:1003E00079F48D919C911197280F391F2E5F3F4F03
:1003F0003983288312968D919C9113979B838A83CE
:100400004115510571F4D0930B01C0930A0120C02E
:1004100012968D919C911397AD01009711F0DC011C
:10042000D3CFFA01D383C28321913191E20FF31F1D
:10043000CE17DF0769F488819981280F391F2E5F55
:100440003F4FFA01318320838A819B81938382838A
:0A045000DF91CF910895F894FFCFDB
:06045A0020000C0100006F
:00000001FF
