S01E00004156525F776974685F42545F73656E64737472696E672E737265636D
S113000012C02CC02BC02AC029C028C027C026C0BB
S113001025C024C023C022C021C020C01FC01EC0D0
S11300201DC01CC01BC011241FBECFE5D4E0DEBF21
S1130030CDBF10E0A0E6B0E0E8E7F3E002C0059031
S11300400D92AE37B107D9F710E0AEE7B0E001C0CA
S11300501D92A238B107E1F777D08CC1D1CFE0E48B
S1130060F0E0908389B988E18AB98EE880830895A5
S1130070982FEBE2F0E0808185FFFDCF9CB90895D5
S1130080FF920F931F93CF93DF938C0180E0C0E026
S1130090D0E0FF24F39407C0F801E20FF31F80813E
S11300A0E7DF21968F2D9E01A02FB12FFD01019036
S11300B00020E9F73197EA1BFB0BCE17DF0760F34B
S11300C0DF91CF911F910F91FF900895EF92FF92CE
S11300D00F931F93CF93DF93EC01E82FFD2FDF01E4
S11300E00D900020E9F78D01015010400E1B1F0BED
S11300F0102F802F90E00A9638D0AC017A010023AB
S113010071F020E030E0FA01E20FF31FDE01A20FEC
S1130110B31F8C9180832F5F3F4F2117A0F3D7012A
S1130120A10FB11DFD018DE081938AE080831296B9
S11301301C92C701A5DFC701C5D0DF91CF911F91E4
S11301400F91FF90EF9008950F931F93CF93DF9338
S113015083E390E084DF00E610E0C0E2DEE4C8015F
S1130160B5DFCE010197F1F7FACFCF93DF93BC014E
S11301708230910510F462E070E0A0918000B091AB
S11301808100ED01E0E0F0E040E050E021C0888132
S113019099818617970769F48A819B81309719F0B2
S11301A09383828304C09093810080938000FE0136
S11301B034C06817790738F44115510519F08417CC
S11301C0950708F4AC01FE018A819B819C01E90139
S11301D02097E9F641155105A9F1CA01861B970B31
S11301E0049708F4BA01E0E0F0E02AC08D919C91F4
S11301F0119784179507F9F46417750781F412961B
S11302008D919C911397309719F09383828304C046
S11302109093810080938000FD0132964FC0CA0103
S1130220861B970BFD01E80FF91F619371930297E9
S11302308D939C9343C0FD01828193819C01D901DC
S11302401097A1F680917E0090917F00892B41F454
S11302508091790090917A0090937F0080937E0042
S113026040917B0050917C004115510541F44DB7FC
S11302705EB78091770090917800481B590B2091CC
S11302807E0030917F0024173507B0F4CA01821B29
S1130290930B8617970780F0AB014E5F5F4F84176F
S11302A0950750F0420F531F50937F0040937E00F8
S11302B0F9016193719302C0E0E0F0E0CF01DF91B6
S11302C0CF910895CF93DF93009709F450C0EC01C8
S11302D022971B821A82A0918000B091810010970E
S11302E009F140E050E0AC17BD0708F1BB83AA83D5
S11302F0FE0121913191E20FF31FAE17BF0779F48C
S11303008D919C911197280F391F2E5F3F4F398390
S1130310288312968D919C9113979B838A83411510
S1130320510571F4D0938100C093800020C01296CF
S11303308D919C911397AD01009711F0DC01D3CFFF
S1130340FA01D383C28321913191E20FF31FCE17B7
S1130350DF0769F488819981280F391F2E5F3F4F89
S1130360FA01318320838A819B8193838283DF9185
S10B0370CF910895F894FFCF2A
S113037848656C6C6F2041565220456E74687573DD
S111038869617374732100200082000000007C
S9030000FC
