S012000053686F77696E674F66662E7372656318
S11300000C9434000C943E000C943E000C943E007E
S11300100C943E000C943E000C943E000C943E0064
S11300200C943E000C943E000C943E000C943E0054
S11300300C943E000C943E000C943E000C943E0044
S11300400C943E000C943E000C943E000C943E0034
S11300500C943E000C943E000C943E000C943E0024
S11300600C943E000C943E0011241FBECFEFD8E048
S1130070DEBFCDBF0E9440000C940C010C94000024
S11300804F925F926F927F928F929F92AF92BF92A4
S1130090CF92DF92EF92FF920F931F93CF93DF9350
S11300A093E080E80FB6F894809361009093610028
S11300B00FBE8FEF84B964E372E1CC24DD24C5E282
S11300C0D0E001E010E00F2EF2E5AF2EF3E0BF2EFA
S11300D0F02D40E951E0C501FA2CE92E0F2EF7E08E
S11300E09F2EF02D0F2EFAE96F2EF0E17F2EF02DCA
S11300F088240F2EF5E04F2EF8E05F2EF02DD60168
S11301002881C8010A2E02C0880F991F0A94E2F7B9
S1130110282B28838F2D9E2DFA013197F1F7019713
S1130120D9F71196A830B10559F7D60188819801FD
S11301300A2E02C0220F331F0A94E2F720952823C7
S113014028838F2D9E2DFA013197F1F70197D9F766
S11301501196A830B10551F79501CA010197F1F73D
S113016021503040D1F7392D2881C801032E02C017
S1130170880F991F0A94E2F7282B28838F2D9E2D30
S1130180FA013197F1F70197D9F7315068F7A92DA2
S1130190888198010A2E02C0220F331F0A94E2F7C5
S11301A02095282328838F2D9E2DFA013197F1F76E
S11301B00197D9F7A15060F79301CA010197F1F7AC
S11301C021503040D1F7382D649DC001659D900DBC
S11301D0749D900D1124BC01675E794C2881872F92
S11301E08770F80102C0EE0FFF1F8A95E2F72E27F1
S11301F028838F2D9E2DFA013197F1F70197D9F7B6
S11302003F5F3B3409F718829301CA010197F1F764
S10F021021503040D1F773CFF894FFCF99
S9030000FC
