:1000000013C037C036C035C034C033C032C031C071
:1000100030C02FC02EC02DC02CC02BC02AC029C07C
:1000200028C027C026C04B0011241FBECFE5D4E056
:10003000DEBFCDBF10E0A0E6B0E0E2E2FAE002C031
:1000400005900D92AA36B107D9F710E0AAE6B0E004
:1000500001C01D92A037B107E1F710E0C8E2D0E07F
:1000600003C02297FE010CD1C632D107D1F77FD051
:10007000D6C4C6CFE0E4F0E0908389B988E18AB9BC
:100080008EE880830895982FEBE2F0E0808185FF71
:10009000FDCF9CB9089584E690E0F6D080936A0085
:1000A00090936B000895FF920F931F93CF93DF936C
:1000B0008C0180E0C0E0D0E0FF24F39407C0F80199
:1000C000E20FF31F8081DFDF21968F2D9E01A02F8D
:1000D000B12FFD0101900020E9F73197EA1BFB0BDE
:1000E000CE17DF0760F3DF91CF911F910F91FF9043
:1000F0000895EF92FF920F931F93CF93DF93EC013C
:10010000E82FFD2FDF010D900020E9F78D01015050
:1001100010400E1B1F0B102F802F90E00A96B4D0BA
:10012000AC017A01002371F020E030E0FA01E20F27
:10013000F31FDE01A20FB31F8C9180832F5F3F4F0F
:100140002117A0F3D701A10FB11DFD018DE081930F
:100150008AE0808312961C92C701A5DFC70141D1B6
:10016000DF91CF911F910F91FF90EF9008952F9203
:100170003F924F925F926F927F928F929F92AF9237
:10018000BF92CF92DF92EF92FF920F931F93DF9374
:10019000CF93CDB7DEB72A970FB6F894DEBF0FBE68
:1001A000CDBF87E690E066DFE7E2F0E08081806423
:1001B0008083E6E2F0E080818360808380818068D4
:1001C00080838FEF87BB0F2EF6E2CF2EDD24F02D3C
:1001D0000F2EF4E22F2E3324F02D4E010894811CB3
:1001E000911C0F2EF0E66F2EF0E07F2EF02D0F2EDB
:1001F000F8E3AF2EBB24F02D0F2EF8EE4F2EF3E0D8
:100200005F2EF02D0F2EF0E9EF2EF1E0FF2EF02DF6
:10021000F601808180648083F601808186FDFCCFB9
:10022000F1010081118100D000D000D0EDB7FEB700
:10023000319691828082738262821583048329D1F0
:100240008DB79EB706960FB6F8949EBF0FBE8DBFB2
:100250000150124028F0F50180818260808304C043
:10026000F50180818D7F8083C40143DF9201C70146
:100270000197F1F721503040D1F7CACFEE0FFF1FA1
:100280000590F491E02D0994CF93DF93BC01823067
:10029000910510F462E070E0A0916E00B0916F00E3
:1002A000ED01E0E0F0E040E050E021C0888199817C
:1002B0008617970769F48A819B81309719F0938399
:1002C000828304C090936F0080936E00FE0134C05F
:1002D0006817790738F44115510519F08417950707
:1002E00008F4AC01FE018A819B819C01E901209701
:1002F000E9F641155105A9F1CA01861B970B049730
:1003000008F4BA01E0E0F0E02AC08D919C911197C9
:1003100084179507F9F46417750781F412968D9187
:100320009C911397309719F09383828304C0909324
:100330006F0080936E00FD0132964FC0CA01861B8C
:10034000970BFD01E80FF91F6193719302978D934D
:100350009C9343C0FD01828193819C01D901109738
:10036000A1F680916C0090916D00892B41F48091F1
:1003700065009091660090936D0080936C004091B1
:100380006700509168004115510541F44DB75EB7C3
:100390008091630090916400481B590B20916C0080
:1003A00030916D0024173507B0F4CA01821B930BFE
:1003B0008617970780F0AB014E5F5F4F8417950754
:1003C00050F0420F531F50936D0040936C00F901A1
:1003D0006193719302C0E0E0F0E0CF01DF91CF9133
:1003E0000895CF93DF93009709F450C0EC01229752
:1003F0001B821A82A0916E00B0916F00109709F1D4
:1004000040E050E0AC17BD0708F1BB83AA83FE01B2
:1004100021913191E20FF31FAE17BF0779F48D914F
:100420009C911197280F391F2E5F3F4F39832883E6
:1004300012968D919C9113979B838A834115510548
:1004400071F4D0936F00C0936E0020C012968D910E
:100450009C911397AD01009711F0DC01D3CFFA0105
:10046000D383C28321913191E20FF31FCE17DF07AF
:1004700069F488819981280F391F2E5F3F4FFA0157
:10048000318320838A819B8193838283DF91CF9103
:100490000895AEE0B0E0EEE4F2E098C20D891E8966
:1004A00086E08C831A8309838FEF9FE79E838D8379
:1004B0009E01275E3F4FCE0101966F89788DA9017D
:1004C00009D02F813885020F131FF80110822E9654
:1004D000E4E098C2ABE0B0E0EFE6F2E069C23C01D4
:1004E0002B015A01FC0117821682838181FD03C012
:1004F0006FEF7FEFB9C19AE0892E1E010894211C8D
:10050000311CF3012381F20123FD859123FF8191A9
:100510002F01882309F4A5C1853239F423FD859183
:1005200023FF81912F01853221F490E0B301B6D1F0
:10053000E8CF982FFF24EE249924FFE1FF15D0F097
:100540009B3269F09C3228F4903259F0933291F446
:100550000EC09D3249F0903369F441E024C052E06E
:10056000F52A84E0F82A28C098E0F92A25C0E0E1BD
:10057000FE2A22C0F7FC29C0892F80538A3070F4EC
:10058000F6FE05C0989C902C1124980E15C0E89C8E
:10059000E02C1124E80EF0E2FF2A0EC09E3229F46E
:1005A000F6FC5FC140E4F42A07C09C3619F450E819
:1005B000F52A02C0983649F4F20123FD959123FFF4
:1005C00091912F01992309F0B8CF892F8554833059
:1005D00018F08052833038F444E050E0A40EB51E89
:1005E0005FE359830FC0933631F0933779F0933539
:1005F00009F052C01FC0F5018081898342E050E0BC
:10060000A40EB51E610101E010E011C0F501C0802B
:10061000D180F6FC03C06FEF7FEF02C0692D70E060
:1006200042E050E0A40EB51EC6012DD18C015FE75B
:10063000F52213C0F501C080D180F6FC03C06FEF36
:100640007FEF02C0692D70E042E050E0A40EB51EBD
:10065000C6010ED18C0150E8F52AF3FE06C018C081
:1006600080E290E0B3011AD1EA948E2D90E0081751
:100670001907B0F30DC0F601F7FC8591F7FE8191E3
:100680006F0190E0B3010AD1E110EA9401501040EB
:100690000115110581F7E2C0943611F0993661F524
:1006A000F7FE08C0F501208131814281538184E049
:1006B00090E00AC0F501808191819C01442737FDBB
:1006C0004095542F82E090E0A80EB91E9FE6F922D3
:1006D00057FF09C050954095309521953F4F4F4F9A
:1006E0005F4FE0E8FE2ACA01B901A1012AE030E02B
:1006F00001D1D82ED2183FC0953729F41F2D1F7E67
:100700002AE030E01DC01F2D197F9F3661F0903721
:1007100020F4983509F0A5C00FC0903739F098370C
:1007200009F09FC004C028E030E00AC0106114FD49
:10073000146020E130E004C014FD166020E132E0D6
:1007400017FF08C0F501608171818281938144E0C7
:1007500050E008C0F50180819181BC0180E090E00B
:1007600042E050E0A40EB51EA101C4D0D82ED2188C
:100770008FE7F82EF122F6FE0BC05EEFF522D914BA
:1007800038F4F4FE07C0F2FC05C08FEEF82202C078
:100790001D2D01C0192DF4FE0DC0FE01ED0DF11D42
:1007A0008081803319F499EEF92208C01F5FF2FEB0
:1007B00005C003C08F2D867809F01F5F0F2DF3FC55
:1007C00013C0F0FE0EC01E1510F09D2C0AC09D2C0B
:1007D0009E0C911A1E2D05C080E290E0B3015ED000
:1007E0001F5F1E15C8F304C01E1510F4E11A01C0E6
:1007F000EE2404FF0EC080E390E0B3014FD002FF6F
:100800001BC001FD03C088E790E00EC088E590E0C2
:100810000BC0802F867881F001FF02C08BE201C0FF
:1008200080E2F7FC8DE290E0B30138D005C080E3B0
:1008300090E0B30133D09A94D914C8F3DA94F1015B
:10084000ED0DF11D808190E0B30128D0DD20B1F7DE
:1008500005C080E290E0B30121D0EA94EE20C9F710
:1008600050CEF30166817781CB012B96E2E1BCC0CB
:10087000FC010590615070400110D8F7809590956B
:100880008E0F9F1F0895FC01615070400190011070
:10089000D8F7809590958E0F9F1F08950F931F9303
:1008A000CF93DF938C01EB018B8181FF1BC082FF13
:1008B0000DC02E813F818C819D812817390764F4FA
:1008C000E881F9810193F983E88306C0E885F98519
:1008D000802F0995892B31F48E819F8101969F830A
:1008E0008E8302C00FEF1FEFC801DF91CF911F91E0
:1008F0000F910895FA01AA27283051F1203181F192
:10090000E8946F936E7F6E5F7F4F8F4F9F4FAF4F17
:10091000B1E03ED0B4E03CD0670F781F891F9A1F2A
:10092000A11D680F791F8A1F911DA11D6A0F711DDE
:10093000811D911DA11D20D009F468943F912AE0EA
:10094000269F11243019305D3193DEF6CF010895D2
:10095000462F4770405D4193B3E00FD0C9F7F6CF03
:10096000462F4F70405D4A3318F0495D31FD4052CB
:10097000419302D0A9F7EACFB4E0A6959795879561
:1009800077956795BA95C9F7009761057105089540
:100990009B01AC010A2E06945795479537952795EC
:1009A000BA95C9F7620F731F841F951FA01D089584
:1009B0002F923F924F925F926F927F928F929F926F
:1009C000AF92BF92CF92DF92EF92FF920F931F935D
:1009D000CF93DF93CDB7DEB7CA1BDB0B0FB6F8940E
:1009E000DEBF0FBECDBF09942A88398848885F844E
:1009F0006E847D848C849B84AA84B984C884DF80BF
:100A0000EE80FD800C811B81AA81B981CE0FD11DA2
:100A10000FB6F894DEBF0FBECDBFED010895F89478
:020A2000FFCF06
:0A0A220025640020007000000000B1
:00000001FF
