S0120000554152545F52585F54582E73726563C2
S113000012C02CC02BC02AC029C028C027C026C0BB
S113001025C024C023C022C021C020C01FC01EC0D0
S11300201DC01CC01BC011241FBECFE5D4E0DEBF21
S1130030CDBF10E0A0E6B0E0E2E1F3E002C005903D
S11300400D92A636B107D9F710E0A6E6B0E001C0DC
S11300501D92AA36B107E1F74ED059C1D1CFE0E4E1
S1130060F0E0908389B988E18AB98EE880830895A5
S1130070982FEBE2F0E0808185FFFDCF9CB90895D5
S1130080EBE2F0E080818823ECF78CB108951F93B4
S1130090182F83E090E036D0E82FF92F10838AE000
S11300A0818312828E2F1F910895FF920F931F93C5
S11300B0CF93DF938C0180E0C0E0D0E0FF24F39481
S11300C007C0F801E20FF31F8081D2DF21968F2D44
S11300D09E01A02FB12FFD0101900020E9F7319777
S11300E0EA1BFB0BCE17DF0760F3DF91CF911F9163
S11300F00F91FF90089583E390E0B1DFC1DFC7DF84
S1130100D4DFFCCFCF93DF93BC018230910510F490
S113011062E070E0A0916800B0916900ED01E0E058
S1130120F0E040E050E021C088819981861797076C
S113013069F48A819B81309719F09383828304C088
S11301409093690080936800FE0134C068177907B2
S113015038F44115510519F08417950708F4AC01DA
S1130160FE018A819B819C01E9012097E9F64115F2
S11301705105A9F1CA01861B970B049708F4BA012B
S1130180E0E0F0E02AC08D919C91119784179507C7
S1130190F9F46417750781F412968D919C91139765
S11301A0309719F09383828304C0909369008093FD
S11301B06800FD0132964FC0CA01861B970BFD01F2
S11301C0E80FF91F6193719302978D939C9343C039
S11301D0FD01828193819C01D9011097A1F6809140
S11301E0660090916700892B41F4809162009091A0
S11301F0630090936700809366004091640050917F
S113020065004115510541F44DB75EB7809160001A
S113021090916100481B590B209166003091670052
S113022024173507B0F4CA01821B930B861797076E
S113023080F0AB014E5F5F4F8417950750F0420F7B
S1130240531F5093670040936600F90161937193C3
S113025002C0E0E0F0E0CF01DF91CF910895CF93A9
S1130260DF93009709F450C0EC0122971B821A8295
S1130270A0916800B0916900109709F140E050E046
S1130280AC17BD0708F1BB83AA83FE01219131910C
S1130290E20FF31FAE17BF0779F48D919C9111976C
S11302A0280F391F2E5F3F4F3983288312968D9173
S11302B09C9113979B838A834115510571F4D093C4
S11302C06900C093680020C012968D919C91139789
S11302D0AD01009711F0DC01D3CFFA01D383C283BF
S11302E021913191E20FF31FCE17DF0769F4888162
S11302F09981280F391F2E5F3F4FFA0131832083E4
S11303008A819B8193838283DF91CF910895F894AE
S1050310FFCF19
S109031220006A00000057
S9030000FC
