S01200004379636C6F6E457965732E7372656314
S113000012C019C018C017C016C015C014C013C040
S113001012C011C010C00FC00EC00DC00CC00BC068
S11300200AC009C008C011241FBECFE5D4E0DEBF5A
S1130030CDBF02D03EC0E4CFEF92FF921F93CF9387
S1130040DF938FEF87BBA1E0B0E0C8E3D0E00F2ED1
S1130050F2E5EF2EF3E0FF2EF02D40E951E0C70169
S11300607E2D192F10C0CD01062E02C0880F991FB6
S11300700A94E2F788839701CA010197F1F72150A6
S11300803040D1F76F5F673070F36623E1F3CD0141
S1130090062E02C0880F991F0A94E2F78883872FDF
S11300A0912FFA013197F1F70197D9F7615079F758
S10900B0EACFF894FFCF33
S9030000FC
